{
  "transactions": [
    {
      "hash": "0x5970c89c31d741d27fa724407fd6b88e0493f419cba23e6a93ca8726870e24ef",
      "transactionType": "CREATE",
      "contractName": "GammaGuide",
      "contractAddress": "0xdbf6fb7d82b6c178a73a795b54ff3dbaea45dae6",
      "function": null,
      "arguments": [
        "0x534b2f3A21130d7a60830c2Df862319e593943A3"
      ],
      "transaction": {
        "from": "0x1433df88aa130363b523f3f452c05854c0a02084",
        "gas": "0x2cc067",
        "value": "0x0",
        "input": "0x608060405234801562000010575f80fd5b50604051620028243803806200282483398181016040528101906200003691906200025a565b60015f819055505f73ffffffffffffffffffffffffffffffffffffffff168173ffffffffffffffffffffffffffffffffffffffff1603620000a3576040517fd92e233d00000000000000000000000000000000000000000000000000000000815260040160405180910390fd5b33600760016101000a81548173ffffffffffffffffffffffffffffffffffffffff021916908373ffffffffffffffffffffffffffffffffffffffff1602179055508060015f6101000a81548173ffffffffffffffffffffffffffffffffffffffff021916908373ffffffffffffffffffffffffffffffffffffffff160217905550610e106006819055508073ffffffffffffffffffffffffffffffffffffffff167fe3b94c907d38c0165b1377b027e9e6e374f59d0efe5d99ffb7dcd4ee21820d0e60405160405180910390a23373ffffffffffffffffffffffffffffffffffffffff167f50146d0e3c60aa1d17a70635b05494f864e86144a2201275021014fbf08bafe260405160405180910390a27f461309d8133f14d74856f2194a28d8637335793efa5804fe202b798919f71ff7600654604051620001e69190620002a4565b60405180910390a150620002bf565b5f80fd5b5f73ffffffffffffffffffffffffffffffffffffffff82169050919050565b5f6200022482620001f9565b9050919050565b620002368162000218565b811462000241575f80fd5b50565b5f8151905062000254816200022b565b92915050565b5f60208284031215620002725762000271620001f5565b5b5f620002818482850162000244565b91505092915050565b5f819050919050565b6200029e816200028a565b82525050565b5f602082019050620002b95f83018462000293565b92915050565b61255780620002cd5f395ff3fe608060405234801561000f575f80fd5b5060043610610109575f3560e01c8063409e2205116100a05780638df828001161006f5780638df82800146102bd5780639215abb0146102ed5780639c7224121461030b578063a7bef4cb1461033b578063f5a0b1281461036b57610109565b8063409e22051461022e57806356447ce8146102655780635c975abb146102815780638da5cb5b1461029f57610109565b80631cfb886d116100dc5780631cfb886d146101945780631d1f0587146101b0578063217a4b70146101e05780633f2a49f0146101fe57610109565b806313af40351461010d5780631584410a1461012957806316345f181461014757806316c38b3c14610178575b5f80fd5b61012760048036038101906101229190611a57565b610387565b005b6101316104fa565b60405161013e9190611a9a565b60405180910390f35b610161600480360381019061015c9190611a57565b610500565b60405161016f929190611acb565b60405180910390f35b610192600480360381019061018d9190611b27565b6105fe565b005b6101ae60048036038101906101a99190611a57565b6106d8565b005b6101ca60048036038101906101c59190611a57565b61084a565b6040516101d79190611b61565b60405180910390f35b6101e8610867565b6040516101f59190611b89565b60405180910390f35b61021860048036038101906102139190611bcc565b61088c565b6040516102259190611a9a565b60405180910390f35b61024860048036038101906102439190611c43565b610d5e565b60405161025c989796959493929190611ce1565b60405180910390f35b61027f600480360381019061027a9190611c43565b610df8565b005b610289610efb565b6040516102969190611b61565b60405180910390f35b6102a7610f0d565b6040516102b49190611b89565b60405180910390f35b6102d760048036038101906102d29190611c43565b610f33565b6040516102e49190611a9a565b60405180910390f35b6102f561128a565b6040516103029190611a9a565b60405180910390f35b61032560048036038101906103209190611daa565b611290565b6040516103329190611a9a565b60405180910390f35b61035560048036038101906103509190611a57565b611316565b6040516103629190611eb1565b60405180910390f35b61038560048036038101906103809190611ed1565b6113a9565b005b600760019054906101000a900473ffffffffffffffffffffffffffffffffffffffff1673ffffffffffffffffffffffffffffffffffffffff163373ffffffffffffffffffffffffffffffffffffffff161461040e576040517f5fc483c500000000000000000000000000000000000000000000000000000000815260040160405180910390fd5b5f73ffffffffffffffffffffffffffffffffffffffff168173ffffffffffffffffffffffffffffffffffffffff1603610473576040517fd92e233d00000000000000000000000000000000000000000000000000000000815260040160405180910390fd5b80600760016101000a81548173ffffffffffffffffffffffffffffffffffffffff021916908373ffffffffffffffffffffffffffffffffffffffff1602179055508073ffffffffffffffffffffffffffffffffffffffff167f50146d0e3c60aa1d17a70635b05494f864e86144a2201275021014fbf08bafe260405160405180910390a250565b60065481565b5f805f805f808673ffffffffffffffffffffffffffffffffffffffff1663feaf968c6040518163ffffffff1660e01b815260040160a060405180830381865afa15801561054f573d5f803e3d5ffd5b505050506040513d601f19601f820116820180604052508101906105739190611f76565b9450945050935093505f8469ffffffffffffffffffff16148061059657505f8313155b806105b857508369ffffffffffffffffffff168169ffffffffffffffffffff16105b156105ef576040517ff45e167b00000000000000000000000000000000000000000000000000000000815260040160405180910390fd5b82829550955050505050915091565b600760019054906101000a900473ffffffffffffffffffffffffffffffffffffffff1673ffffffffffffffffffffffffffffffffffffffff163373ffffffffffffffffffffffffffffffffffffffff1614610685576040517f5fc483c500000000000000000000000000000000000000000000000000000000815260040160405180910390fd5b8060075f6101000a81548160ff0219169083151502179055507f40db37ff5c0bdc2c427fbb2078c8f24afea940abac0e3c23bb4ea3bf2da2b212816040516106cd9190611b61565b60405180910390a150565b600760019054906101000a900473ffffffffffffffffffffffffffffffffffffffff1673ffffffffffffffffffffffffffffffffffffffff163373ffffffffffffffffffffffffffffffffffffffff161461075f576040517f5fc483c500000000000000000000000000000000000000000000000000000000815260040160405180910390fd5b5f73ffffffffffffffffffffffffffffffffffffffff168173ffffffffffffffffffffffffffffffffffffffff16036107c4576040517fd92e233d00000000000000000000000000000000000000000000000000000000815260040160405180910390fd5b8060015f6101000a81548173ffffffffffffffffffffffffffffffffffffffff021916908373ffffffffffffffffffffffffffffffffffffffff1602179055508073ffffffffffffffffffffffffffffffffffffffff167fe3b94c907d38c0165b1377b027e9e6e374f59d0efe5d99ffb7dcd4ee21820d0e60405160405180910390a250565b6005602052805f5260405f205f915054906101000a900460ff1681565b60015f9054906101000a900473ffffffffffffffffffffffffffffffffffffffff1681565b5f60025f54036108c8576040517f3ee5aeb500000000000000000000000000000000000000000000000000000000815260040160405180910390fd5b60025f8190555060075f9054906101000a900460ff1615610915576040517fab35696f00000000000000000000000000000000000000000000000000000000815260040160405180910390fd5b5f73ffffffffffffffffffffffffffffffffffffffff168673ffffffffffffffffffffffffffffffffffffffff160361097a576040517fd92e233d00000000000000000000000000000000000000000000000000000000815260040160405180910390fd5b60055f8773ffffffffffffffffffffffffffffffffffffffff1673ffffffffffffffffffffffffffffffffffffffff1681526020019081526020015f205f9054906101000a900460ff166109fa576040517f22032c5e00000000000000000000000000000000000000000000000000000000815260040160405180910390fd5b428311610a33576040517f79955a1000000000000000000000000000000000000000000000000000000000815260040160405180910390fd5b6301e1338042610a43919061201a565b831115610a7c576040517f4828eeca00000000000000000000000000000000000000000000000000000000815260040160405180910390fd5b5f8403610ab5576040517fb34b248b00000000000000000000000000000000000000000000000000000000815260040160405180910390fd5b60025f815480929190610ac79061204d565b91905055905060045f3373ffffffffffffffffffffffffffffffffffffffff1673ffffffffffffffffffffffffffffffffffffffff1681526020019081526020015f2081908060018154018082558091505060019003905f5260205f20015f90919091909150555f85610b3b576001610b3d565b5f5b90506040518061010001604052808873ffffffffffffffffffffffffffffffffffffffff168152602001826001811115610b7a57610b79611c6e565b5b81526020018681526020018581526020013373ffffffffffffffffffffffffffffffffffffffff1681526020018481526020015f151581526020015f81525060035f8481526020019081526020015f205f820151815f015f6101000a81548173ffffffffffffffffffffffffffffffffffffffff021916908373ffffffffffffffffffffffffffffffffffffffff1602179055506020820151815f0160146101000a81548160ff02191690836001811115610c3857610c37611c6e565b5b021790555060408201518160010155606082015181600201556080820151816003015f6101000a81548173ffffffffffffffffffffffffffffffffffffffff021916908373ffffffffffffffffffffffffffffffffffffffff16021790555060a0820151816004015560c0820151816005015f6101000a81548160ff02191690831515021790555060e082015181600601559050503373ffffffffffffffffffffffffffffffffffffffff168773ffffffffffffffffffffffffffffffffffffffff16837f3a7102d745a1a934b55a9587269c6d7ca4306eada965cbde70365331b362b7a184898989604051610d319493929190612094565b60405180910390a45f831115610d4d57610d4c33308561153b565b5b5060015f8190555095945050505050565b6003602052805f5260405f205f91509050805f015f9054906101000a900473ffffffffffffffffffffffffffffffffffffffff1690805f0160149054906101000a900460ff1690806001015490806002015490806003015f9054906101000a900473ffffffffffffffffffffffffffffffffffffffff1690806004015490806005015f9054906101000a900460ff16908060060154905088565b600760019054906101000a900473ffffffffffffffffffffffffffffffffffffffff1673ffffffffffffffffffffffffffffffffffffffff163373ffffffffffffffffffffffffffffffffffffffff1614610e7f576040517f5fc483c500000000000000000000000000000000000000000000000000000000815260040160405180910390fd5b6001811015610eba576040517fc72d581400000000000000000000000000000000000000000000000000000000815260040160405180910390fd5b806006819055507f461309d8133f14d74856f2194a28d8637335793efa5804fe202b798919f71ff781604051610ef09190611a9a565b60405180910390a150565b60075f9054906101000a900460ff1681565b600760019054906101000a900473ffffffffffffffffffffffffffffffffffffffff1681565b5f60025f5403610f6f576040517f3ee5aeb500000000000000000000000000000000000000000000000000000000815260040160405180910390fd5b60025f819055505f60035f8481526020019081526020015f2090505f73ffffffffffffffffffffffffffffffffffffffff16816003015f9054906101000a900473ffffffffffffffffffffffffffffffffffffffff1673ffffffffffffffffffffffffffffffffffffffff1603611012576040517f7b9bd77300000000000000000000000000000000000000000000000000000000815260040160405180910390fd5b8060020154421015611050576040517fd0404f8500000000000000000000000000000000000000000000000000000000815260040160405180910390fd5b806005015f9054906101000a900460ff1615611098576040517f560ff90000000000000000000000000000000000000000000000000000000000815260040160405180910390fd5b5f806110c5835f015f9054906101000a900473ffffffffffffffffffffffffffffffffffffffff16610500565b915091508260020154811015611118578083600201546040517f99063a9d00000000000000000000000000000000000000000000000000000000815260040161110f9291906120d7565b60405180910390fd5b80421180156111335750600654814261113191906120fe565b115b1561117957806006546040517f2730eb480000000000000000000000000000000000000000000000000000000081526004016111709291906120d7565b60405180910390fd5b5f611199845f0160149054906101000a900460ff16856001015485611290565b90506111c7845f015f9054906101000a900473ffffffffffffffffffffffffffffffffffffffff16826116bf565b94505f846003015f9054906101000a900473ffffffffffffffffffffffffffffffffffffffff1690506001856005015f6101000a81548160ff0219169083151502179055508585600601819055508073ffffffffffffffffffffffffffffffffffffffff16877f49f1175a08ab1c0545f6d828fdbf8d4d8ccbd4f7e890d30f7ad865169cdebf7c888760405161125e929190612131565b60405180910390a35f861115611279576112788187611730565b5b505050505060015f81905550919050565b60025481565b5f8082136112a0575f905061130f565b5f8290505f60018111156112b7576112b6611c6e565b5b8560018111156112ca576112c9611c6e565b5b036112f1578381116112dc575f6112e9565b83816112e891906120fe565b5b91505061130f565b8084116112fe575f61130b565b808461130a91906120fe565b5b9150505b9392505050565b606060045f8373ffffffffffffffffffffffffffffffffffffffff1673ffffffffffffffffffffffffffffffffffffffff1681526020019081526020015f2080548060200260200160405190810160405280929190818152602001828054801561139d57602002820191905f5260205f20905b815481526020019060010190808311611389575b50505050509050919050565b600760019054906101000a900473ffffffffffffffffffffffffffffffffffffffff1673ffffffffffffffffffffffffffffffffffffffff163373ffffffffffffffffffffffffffffffffffffffff1614611430576040517f5fc483c500000000000000000000000000000000000000000000000000000000815260040160405180910390fd5b5f73ffffffffffffffffffffffffffffffffffffffff168273ffffffffffffffffffffffffffffffffffffffff1603611495576040517fd92e233d00000000000000000000000000000000000000000000000000000000815260040160405180910390fd5b8060055f8473ffffffffffffffffffffffffffffffffffffffff1673ffffffffffffffffffffffffffffffffffffffff1681526020019081526020015f205f6101000a81548160ff0219169083151502179055508173ffffffffffffffffffffffffffffffffffffffff167f5fb975982001b5628fa52c30e678eb569736c74c4d0835616e5580f71d3320ce8260405161152f9190611b61565b60405180910390a25050565b5f8060015f9054906101000a900473ffffffffffffffffffffffffffffffffffffffff1673ffffffffffffffffffffffffffffffffffffffff1685858560405160240161158a93929190612158565b6040516020818303038152906040527f23b872dd000000000000000000000000000000000000000000000000000000007bffffffffffffffffffffffffffffffffffffffffffffffffffffffff19166020820180517bffffffffffffffffffffffffffffffffffffffffffffffffffffffff838183161783525050505060405161161491906121f9565b5f604051808303815f865af19150503d805f811461164d576040519150601f19603f3d011682016040523d82523d5f602084013e611652565b606091505b509150915081158061168157505f815111801561168057508080602001905181019061167e9190612223565b155b5b156116b8576040517f90b8ec1800000000000000000000000000000000000000000000000000000000815260040160405180910390fd5b5050505050565b5f806116c96118b1565b905060088160ff1610611702576008816116e3919061225a565b600a6116ef91906123bd565b836116fa9190612407565b91505061172a565b80600861170f919061225a565b600a61171b91906123bd565b836117269190612475565b9150505b92915050565b5f8060015f9054906101000a900473ffffffffffffffffffffffffffffffffffffffff1673ffffffffffffffffffffffffffffffffffffffff16848460405160240161177d9291906124a5565b6040516020818303038152906040527fa9059cbb000000000000000000000000000000000000000000000000000000007bffffffffffffffffffffffffffffffffffffffffffffffffffffffff19166020820180517bffffffffffffffffffffffffffffffffffffffffffffffffffffffff838183161783525050505060405161180791906121f9565b5f604051808303815f865af19150503d805f8114611840576040519150601f19603f3d011682016040523d82523d5f602084013e611845565b606091505b509150915081158061187457505f81511180156118735750808060200190518101906118719190612223565b155b5b156118ab576040517f90b8ec1800000000000000000000000000000000000000000000000000000000815260040160405180910390fd5b50505050565b5f805f60015f9054906101000a900473ffffffffffffffffffffffffffffffffffffffff1673ffffffffffffffffffffffffffffffffffffffff166040516024016040516020818303038152906040527f313ce567000000000000000000000000000000000000000000000000000000007bffffffffffffffffffffffffffffffffffffffffffffffffffffffff19166020820180517bffffffffffffffffffffffffffffffffffffffffffffffffffffffff838183161783525050505060405161197c91906121f9565b5f60405180830381855afa9150503d805f81146119b4576040519150601f19603f3d011682016040523d82523d5f602084013e6119b9565b606091505b50915091508180156119cd57506020815110155b156119ef57808060200190518101906119e691906124f6565b925050506119f6565b6006925050505b90565b5f80fd5b5f73ffffffffffffffffffffffffffffffffffffffff82169050919050565b5f611a26826119fd565b9050919050565b611a3681611a1c565b8114611a40575f80fd5b50565b5f81359050611a5181611a2d565b92915050565b5f60208284031215611a6c57611a6b6119f9565b5b5f611a7984828501611a43565b91505092915050565b5f819050919050565b611a9481611a82565b82525050565b5f602082019050611aad5f830184611a8b565b92915050565b5f819050919050565b611ac581611ab3565b82525050565b5f604082019050611ade5f830185611abc565b611aeb6020830184611a8b565b9392505050565b5f8115159050919050565b611b0681611af2565b8114611b10575f80fd5b50565b5f81359050611b2181611afd565b92915050565b5f60208284031215611b3c57611b3b6119f9565b5b5f611b4984828501611b13565b91505092915050565b611b5b81611af2565b82525050565b5f602082019050611b745f830184611b52565b92915050565b611b8381611a1c565b82525050565b5f602082019050611b9c5f830184611b7a565b92915050565b611bab81611a82565b8114611bb5575f80fd5b50565b5f81359050611bc681611ba2565b92915050565b5f805f805f60a08688031215611be557611be46119f9565b5b5f611bf288828901611a43565b9550506020611c0388828901611b13565b9450506040611c1488828901611bb8565b9350506060611c2588828901611bb8565b9250506080611c3688828901611bb8565b9150509295509295909350565b5f60208284031215611c5857611c576119f9565b5b5f611c6584828501611bb8565b91505092915050565b7f4e487b71000000000000000000000000000000000000000000000000000000005f52602160045260245ffd5b60028110611cac57611cab611c6e565b5b50565b5f819050611cbc82611c9b565b919050565b5f611ccb82611caf565b9050919050565b611cdb81611cc1565b82525050565b5f61010082019050611cf55f83018b611b7a565b611d02602083018a611cd2565b611d0f6040830189611a8b565b611d1c6060830188611a8b565b611d296080830187611b7a565b611d3660a0830186611a8b565b611d4360c0830185611b52565b611d5060e0830184611a8b565b9998505050505050505050565b60028110611d69575f80fd5b50565b5f81359050611d7a81611d5d565b92915050565b611d8981611ab3565b8114611d93575f80fd5b50565b5f81359050611da481611d80565b92915050565b5f805f60608486031215611dc157611dc06119f9565b5b5f611dce86828701611d6c565b9350506020611ddf86828701611bb8565b9250506040611df086828701611d96565b9150509250925092565b5f81519050919050565b5f82825260208201905092915050565b5f819050602082019050919050565b611e2c81611a82565b82525050565b5f611e3d8383611e23565b60208301905092915050565b5f602082019050919050565b5f611e5f82611dfa565b611e698185611e04565b9350611e7483611e14565b805f5b83811015611ea4578151611e8b8882611e32565b9750611e9683611e49565b925050600181019050611e77565b5085935050505092915050565b5f6020820190508181035f830152611ec98184611e55565b905092915050565b5f8060408385031215611ee757611ee66119f9565b5b5f611ef485828601611a43565b9250506020611f0585828601611b13565b9150509250929050565b5f69ffffffffffffffffffff82169050919050565b611f2d81611f0f565b8114611f37575f80fd5b50565b5f81519050611f4881611f24565b92915050565b5f81519050611f5c81611d80565b92915050565b5f81519050611f7081611ba2565b92915050565b5f805f805f60a08688031215611f8f57611f8e6119f9565b5b5f611f9c88828901611f3a565b9550506020611fad88828901611f4e565b9450506040611fbe88828901611f62565b9350506060611fcf88828901611f62565b9250506080611fe088828901611f3a565b9150509295509295909350565b7f4e487b71000000000000000000000000000000000000000000000000000000005f52601160045260245ffd5b5f61202482611a82565b915061202f83611a82565b925082820190508082111561204757612046611fed565b5b92915050565b5f61205782611a82565b91507fffffffffffffffffffffffffffffffffffffffffffffffffffffffffffffffff820361208957612088611fed565b5b600182019050919050565b5f6080820190506120a75f830187611cd2565b6120b46020830186611a8b565b6120c16040830185611a8b565b6120ce6060830184611a8b565b95945050505050565b5f6040820190506120ea5f830185611a8b565b6120f76020830184611a8b565b9392505050565b5f61210882611a82565b915061211383611a82565b925082820390508181111561212b5761212a611fed565b5b92915050565b5f6040820190506121445f830185611a8b565b6121516020830184611abc565b9392505050565b5f60608201905061216b5f830186611b7a565b6121786020830185611b7a565b6121856040830184611a8b565b949350505050565b5f81519050919050565b5f81905092915050565b5f5b838110156121be5780820151818401526020810190506121a3565b5f8484015250505050565b5f6121d38261218d565b6121dd8185612197565b93506121ed8185602086016121a1565b80840191505092915050565b5f61220482846121c9565b915081905092915050565b5f8151905061221d81611afd565b92915050565b5f60208284031215612238576122376119f9565b5b5f6122458482850161220f565b91505092915050565b5f60ff82169050919050565b5f6122648261224e565b915061226f8361224e565b9250828203905060ff81111561228857612287611fed565b5b92915050565b5f8160011c9050919050565b5f808291508390505b60018511156122e3578086048111156122bf576122be611fed565b5b60018516156122ce5780820291505b80810290506122dc8561228e565b94506122a3565b94509492505050565b5f826122fb57600190506123b6565b81612308575f90506123b6565b816001811461231e576002811461232857612357565b60019150506123b6565b60ff84111561233a57612339611fed565b5b8360020a91508482111561235157612350611fed565b5b506123b6565b5060208310610133831016604e8410600b841016171561238c5782820a90508381111561238757612386611fed565b5b6123b6565b612399848484600161229a565b925090508184048111156123b0576123af611fed565b5b81810290505b9392505050565b5f6123c782611a82565b91506123d28361224e565b92506123ff7fffffffffffffffffffffffffffffffffffffffffffffffffffffffffffffffff84846122ec565b905092915050565b5f61241182611a82565b915061241c83611a82565b925082820261242a81611a82565b9150828204841483151761244157612440611fed565b5b5092915050565b7f4e487b71000000000000000000000000000000000000000000000000000000005f52601260045260245ffd5b5f61247f82611a82565b915061248a83611a82565b92508261249a57612499612448565b5b828204905092915050565b5f6040820190506124b85f830185611b7a565b6124c56020830184611a8b565b9392505050565b6124d58161224e565b81146124df575f80fd5b50565b5f815190506124f0816124cc565b92915050565b5f6020828403121561250b5761250a6119f9565b5b5f612518848285016124e2565b9150509291505056fea26469706673582212201261c020e1a6274a6839a0b6ebc1147a36475149ee75b322529cb5bf4e6a8e3a64736f6c63430008140033000000000000000000000000534b2f3a21130d7a60830c2df862319e593943a3",
        "nonce": "0x0",
        "chainId": "0x279f"
      },
      "additionalContracts": [],
      "isFixedGasLimit": false
    },
    {
      "hash": "0xf150ff489b1a934e9ec198023ff8375fd547d247120c22e2cc98ef272f5f425f",
      "transactionType": "CALL",
      "contractName": "GammaGuide",
      "contractAddress": "0xdbf6fb7d82b6c178a73a795b54ff3dbaea45dae6",
      "function": "setAllowedFeed(address,bool)",
      "arguments": [
        "0x1B1414782B859871781bA3E4B0979b9ca57A0A04",
        "true"
      ],
      "transaction": {
        "from": "0x1433df88aa130363b523f3f452c05854c0a02084",
        "to": "0xdbf6fb7d82b6c178a73a795b54ff3dbaea45dae6",
        "gas": "0x72a3",
        "value": "0x0",
        "input": "0xf5a0b1280000000000000000000000001b1414782b859871781ba3e4b0979b9ca57a0a040000000000000000000000000000000000000000000000000000000000000001",
        "nonce": "0x1",
        "chainId": "0x279f"
      },
      "additionalContracts": [],
      "isFixedGasLimit": false
    },
    {
      "hash": "0x1d65adf934ccef4a9e44b72f63ca0e8e5544526cc95998e7053c61b8a4e36754",
      "transactionType": "CALL",
      "contractName": "GammaGuide",
      "contractAddress": "0xdbf6fb7d82b6c178a73a795b54ff3dbaea45dae6",
      "function": "setAllowedFeed(address,bool)",
      "arguments": [
        "0xc1d4C3331635184fA4C3c22fb92211B2Ac9E0546",
        "true"
      ],
      "transaction": {
        "from": "0x1433df88aa130363b523f3f452c05854c0a02084",
        "to": "0xdbf6fb7d82b6c178a73a795b54ff3dbaea45dae6",
        "gas": "0x72a3",
        "value": "0x0",
        "input": "0xf5a0b128000000000000000000000000c1d4c3331635184fa4c3c22fb92211b2ac9e05460000000000000000000000000000000000000000000000000000000000000001",
        "nonce": "0x2",
        "chainId": "0x279f"
      },
      "additionalContracts": [],
      "isFixedGasLimit": false
    },
    {
      "hash": "0x72b01d0d7f4057fef1954834d82ee6c33a8b281bc9b3c2b18d512fd1fa894e83",
      "transactionType": "CALL",
      "contractName": "GammaGuide",
      "contractAddress": "0xdbf6fb7d82b6c178a73a795b54ff3dbaea45dae6",
      "function": "setAllowedFeed(address,bool)",
      "arguments": [
        "0x16F8008c3e89f62e5e2b909Ce70999370D38F4F2",
        "true"
      ],
      "transaction": {
        "from": "0x1433df88aa130363b523f3f452c05854c0a02084",
        "to": "0xdbf6fb7d82b6c178a73a795b54ff3dbaea45dae6",
        "gas": "0x7293",
        "value": "0x0",
        "input": "0xf5a0b12800000000000000000000000016f8008c3e89f62e5e2b909ce70999370d38f4f20000000000000000000000000000000000000000000000000000000000000001",
        "nonce": "0x3",
        "chainId": "0x279f"
      },
      "additionalContracts": [],
      "isFixedGasLimit": false
    },
    {
      "hash": "0x8eddffc3da4358876056818dfa1d1d78e4c67266f0509c2de1172959fc4540c9",
      "transactionType": "CALL",
      "contractName": "GammaGuide",
      "contractAddress": "0xdbf6fb7d82b6c178a73a795b54ff3dbaea45dae6",
      "function": "setAllowedFeed(address,bool)",
      "arguments": [
        "0x5c266b5c655664d6c99a13fF0d7F1F7eaF4Ac9ba",
        "true"
      ],
      "transaction": {
        "from": "0x1433df88aa130363b523f3f452c05854c0a02084",
        "to": "0xdbf6fb7d82b6c178a73a795b54ff3dbaea45dae6",
        "gas": "0x72a3",
        "value": "0x0",
        "input": "0xf5a0b1280000000000000000000000005c266b5c655664d6c99a13ff0d7f1f7eaf4ac9ba0000000000000000000000000000000000000000000000000000000000000001",
        "nonce": "0x4",
        "chainId": "0x279f"
      },
      "additionalContracts": [],
      "isFixedGasLimit": false
    },
    {
      "hash": "0x97af79018fcf5d39438ac0e6dc617c0050536178faf84192b57a7ff9c71da7e6",
      "transactionType": "CALL",
      "contractName": "GammaGuide",
      "contractAddress": "0xdbf6fb7d82b6c178a73a795b54ff3dbaea45dae6",
      "function": "setAllowedFeed(address,bool)",
      "arguments": [
        "0xb0c0202E6d8b978f9b6FE6B5e50ebD6FD7A962a1",
        "true"
      ],
      "transaction": {
        "from": "0x1433df88aa130363b523f3f452c05854c0a02084",
        "to": "0xdbf6fb7d82b6c178a73a795b54ff3dbaea45dae6",
        "gas": "0x72a3",
        "value": "0x0",
        "input": "0xf5a0b128000000000000000000000000b0c0202e6d8b978f9b6fe6b5e50ebd6fd7a962a10000000000000000000000000000000000000000000000000000000000000001",
        "nonce": "0x5",
        "chainId": "0x279f"
      },
      "additionalContracts": [],
      "isFixedGasLimit": false
    },
    {
      "hash": "0x0084d15a6c25ce4e04618931e43bbdd14118d69eab3692646f5a99f3d0200d60",
      "transactionType": "CALL",
      "contractName": "GammaGuide",
      "contractAddress": "0xdbf6fb7d82b6c178a73a795b54ff3dbaea45dae6",
      "function": "setAllowedFeed(address,bool)",
      "arguments": [
        "0xcD22c0012480987F6F81F1099E74954B75666361",
        "true"
      ],
      "transaction": {
        "from": "0x1433df88aa130363b523f3f452c05854c0a02084",
        "to": "0xdbf6fb7d82b6c178a73a795b54ff3dbaea45dae6",
        "gas": "0x72a3",
        "value": "0x0",
        "input": "0xf5a0b128000000000000000000000000cd22c0012480987f6f81f1099e74954b756663610000000000000000000000000000000000000000000000000000000000000001",
        "nonce": "0x6",
        "chainId": "0x279f"
      },
      "additionalContracts": [],
      "isFixedGasLimit": false
    },
    {
      "hash": "0xb127daa677aace5b34df462de564a911b97b92f8c6f0d0cea5ed72945aa1cccd",
      "transactionType": "CALL",
      "contractName": "GammaGuide",
      "contractAddress": "0xdbf6fb7d82b6c178a73a795b54ff3dbaea45dae6",
      "function": "setAllowedFeed(address,bool)",
      "arguments": [
        "0x3B59380FdCf2fd414F1675D76AF5F20FB92663a7",
        "true"
      ],
      "transaction": {
        "from": "0x1433df88aa130363b523f3f452c05854c0a02084",
        "to": "0xdbf6fb7d82b6c178a73a795b54ff3dbaea45dae6",
        "gas": "0x72a3",
        "value": "0x0",
        "input": "0xf5a0b1280000000000000000000000003b59380fdcf2fd414f1675d76af5f20fb92663a70000000000000000000000000000000000000000000000000000000000000001",
        "nonce": "0x7",
        "chainId": "0x279f"
      },
      "additionalContracts": [],
      "isFixedGasLimit": false
    },
    {
      "hash": "0x493079eb6d7307ac98fbc1b3e713f367ce71f7d41f08ea3a03dbcf4a179a33ba",
      "transactionType": "CALL",
      "contractName": "GammaGuide",
      "contractAddress": "0xdbf6fb7d82b6c178a73a795b54ff3dbaea45dae6",
      "function": "setAllowedFeed(address,bool)",
      "arguments": [
        "0x1c747D909102bfCdb305C54bDdDBdA3eF588B1d0",
        "true"
      ],
      "transaction": {
        "from": "0x1433df88aa130363b523f3f452c05854c0a02084",
        "to": "0xdbf6fb7d82b6c178a73a795b54ff3dbaea45dae6",
        "gas": "0x72a3",
        "value": "0x0",
        "input": "0xf5a0b1280000000000000000000000001c747d909102bfcdb305c54bdddbda3ef588b1d00000000000000000000000000000000000000000000000000000000000000001",
        "nonce": "0x8",
        "chainId": "0x279f"
      },
      "additionalContracts": [],
      "isFixedGasLimit": false
    },
    {
      "hash": "0x9c1aa64fef195d08408443fc1a5a8237d8b6be71de849ca29310e72ddd50236d",
      "transactionType": "CALL",
      "contractName": "GammaGuide",
      "contractAddress": "0xdbf6fb7d82b6c178a73a795b54ff3dbaea45dae6",
      "function": "setAllowedFeed(address,bool)",
      "arguments": [
        "0x8Cc589634A0B5959Fb29fc1111CFf26356b11918",
        "true"
      ],
      "transaction": {
        "from": "0x1433df88aa130363b523f3f452c05854c0a02084",
        "to": "0xdbf6fb7d82b6c178a73a795b54ff3dbaea45dae6",
        "gas": "0x72a3",
        "value": "0x0",
        "input": "0xf5a0b1280000000000000000000000008cc589634a0b5959fb29fc1111cff26356b119180000000000000000000000000000000000000000000000000000000000000001",
        "nonce": "0x9",
        "chainId": "0x279f"
      },
      "additionalContracts": [],
      "isFixedGasLimit": false
    },
    {
      "hash": "0x43bfb12c9e4a1f3bab21c3eb70cc2b5cf564c85895c4cd90ca63173d213e6b23",
      "transactionType": "CALL",
      "contractName": "GammaGuide",
      "contractAddress": "0xdbf6fb7d82b6c178a73a795b54ff3dbaea45dae6",
      "function": "setAllowedFeed(address,bool)",
      "arguments": [
        "0xBcD78f76005B7515837af6b50c7C52BCf73822fb",
        "true"
      ],
      "transaction": {
        "from": "0x1433df88aa130363b523f3f452c05854c0a02084",
        "to": "0xdbf6fb7d82b6c178a73a795b54ff3dbaea45dae6",
        "gas": "0x7293",
        "value": "0x0",
        "input": "0xf5a0b128000000000000000000000000bcd78f76005b7515837af6b50c7c52bcf73822fb0000000000000000000000000000000000000000000000000000000000000001",
        "nonce": "0xa",
        "chainId": "0x279f"
      },
      "additionalContracts": [],
      "isFixedGasLimit": false
    },
    {
      "hash": "0x2faf87c794836aa39227cc093ac3e18598eeedeb7e9e77e1cee89d91bb029e67",
      "transactionType": "CALL",
      "contractName": "GammaGuide",
      "contractAddress": "0xdbf6fb7d82b6c178a73a795b54ff3dbaea45dae6",
      "function": "setAllowedFeed(address,bool)",
      "arguments": [
        "0x2D1Df1bD061AAc38C22407AD69d69bCC3C62edBD",
        "true"
      ],
      "transaction": {
        "from": "0x1433df88aa130363b523f3f452c05854c0a02084",
        "to": "0xdbf6fb7d82b6c178a73a795b54ff3dbaea45dae6",
        "gas": "0x72a3",
        "value": "0x0",
        "input": "0xf5a0b1280000000000000000000000002d1df1bd061aac38c22407ad69d69bcc3c62edbd0000000000000000000000000000000000000000000000000000000000000001",
        "nonce": "0xb",
        "chainId": "0x279f"
      },
      "additionalContracts": [],
      "isFixedGasLimit": false
    },
    {
      "hash": "0x0887aabc36fac416939a1c2f6a58066036290b25c196f660d8585e7f75ef4c0d",
      "transactionType": "CALL",
      "contractName": "GammaGuide",
      "contractAddress": "0xdbf6fb7d82b6c178a73a795b54ff3dbaea45dae6",
      "function": "setAllowedFeed(address,bool)",
      "arguments": [
        "0xf5F15f188AbCB0d165D1Edb7f37F7d6fA2fCebec",
        "true"
      ],
      "transaction": {
        "from": "0x1433df88aa130363b523f3f452c05854c0a02084",
        "to": "0xdbf6fb7d82b6c178a73a795b54ff3dbaea45dae6",
        "gas": "0x72a3",
        "value": "0x0",
        "input": "0xf5a0b128000000000000000000000000f5f15f188abcb0d165d1edb7f37f7d6fa2fcebec0000000000000000000000000000000000000000000000000000000000000001",
        "nonce": "0xc",
        "chainId": "0x279f"
      },
      "additionalContracts": [],
      "isFixedGasLimit": false
    },
    {
      "hash": "0x8dd2026f8d6ebcfe8039d6cfdc83a41f8066d9d20d8d0f3b6194501bb21c79cf",
      "transactionType": "CALL",
      "contractName": "GammaGuide",
      "contractAddress": "0xdbf6fb7d82b6c178a73a795b54ff3dbaea45dae6",
      "function": "setAllowedFeed(address,bool)",
      "arguments": [
        "0x1a1Be4c184923a6BFF8c27cfDf6ac8bDE4DE00FC",
        "true"
      ],
      "transaction": {
        "from": "0x1433df88aa130363b523f3f452c05854c0a02084",
        "to": "0xdbf6fb7d82b6c178a73a795b54ff3dbaea45dae6",
        "gas": "0x7293",
        "value": "0x0",
        "input": "0xf5a0b1280000000000000000000000001a1be4c184923a6bff8c27cfdf6ac8bde4de00fc0000000000000000000000000000000000000000000000000000000000000001",
        "nonce": "0xd",
        "chainId": "0x279f"
      },
      "additionalContracts": [],
      "isFixedGasLimit": false
    }
  ],
  "receipts": [
    {
      "status": "0x1",
      "cumulativeGasUsed": "0x2cc067",
      "logs": [
        {
          "address": "0xdbf6fb7d82b6c178a73a795b54ff3dbaea45dae6",
          "topics": [
            "0xe3b94c907d38c0165b1377b027e9e6e374f59d0efe5d99ffb7dcd4ee21820d0e",
            "0x000000000000000000000000534b2f3a21130d7a60830c2df862319e593943a3"
          ],
          "data": "0x",
          "blockHash": "0x5a4d120c5b27a378a020d107ffcd13f36da8c72da0473c7881dc4403ac95e45d",
          "blockNumber": "0xce1d53",
          "blockTimestamp": "0x69950961",
          "transactionHash": "0x5970c89c31d741d27fa724407fd6b88e0493f419cba23e6a93ca8726870e24ef",
          "transactionIndex": "0x1",
          "logIndex": "0x1",
          "removed": false
        },
        {
          "address": "0xdbf6fb7d82b6c178a73a795b54ff3dbaea45dae6",
          "topics": [
            "0x50146d0e3c60aa1d17a70635b05494f864e86144a2201275021014fbf08bafe2",
            "0x0000000000000000000000001433df88aa130363b523f3f452c05854c0a02084"
          ],
          "data": "0x",
          "blockHash": "0x5a4d120c5b27a378a020d107ffcd13f36da8c72da0473c7881dc4403ac95e45d",
          "blockNumber": "0xce1d53",
          "blockTimestamp": "0x69950961",
          "transactionHash": "0x5970c89c31d741d27fa724407fd6b88e0493f419cba23e6a93ca8726870e24ef",
          "transactionIndex": "0x1",
          "logIndex": "0x2",
          "removed": false
        },
        {
          "address": "0xdbf6fb7d82b6c178a73a795b54ff3dbaea45dae6",
          "topics": [
            "0x461309d8133f14d74856f2194a28d8637335793efa5804fe202b798919f71ff7"
          ],
          "data": "0x0000000000000000000000000000000000000000000000000000000000000e10",
          "blockHash": "0x5a4d120c5b27a378a020d107ffcd13f36da8c72da0473c7881dc4403ac95e45d",
          "blockNumber": "0xce1d53",
          "blockTimestamp": "0x69950961",
          "transactionHash": "0x5970c89c31d741d27fa724407fd6b88e0493f419cba23e6a93ca8726870e24ef",
          "transactionIndex": "0x1",
          "logIndex": "0x3",
          "removed": false
        }
      ],
      "logsBloom": "0x00000000000000000000000000000000000800000000800000000000000000000000000000000000002000000000400000000000000000000000000000000002000000000000000000000000000000000000000000000000000000001000000080000000000000000000000000000000010000000000100000000000000000000000000000000000000000000000000000000000000000000080000000000080000000000100000000000000044000000000000000000000000000000000000000000000000000000000000000400000000000000000000000000000002000000000000000000000000000000000000000000000800000000020000000000000",
      "type": "0x2",
      "transactionHash": "0x5970c89c31d741d27fa724407fd6b88e0493f419cba23e6a93ca8726870e24ef",
      "transactionIndex": "0x1",
      "blockHash": "0x5a4d120c5b27a378a020d107ffcd13f36da8c72da0473c7881dc4403ac95e45d",
      "blockNumber": "0xce1d53",
      "gasUsed": "0x2cc067",
      "effectiveGasPrice": "0x17bfac7c00",
      "from": "0x1433df88aa130363b523f3f452c05854c0a02084",
      "to": null,
      "contractAddress": "0xdbf6fb7d82b6c178a73a795b54ff3dbaea45dae6"
    },
    {
      "status": "0x1",
      "cumulativeGasUsed": "0x4a722",
      "logs": [
        {
          "address": "0xdbf6fb7d82b6c178a73a795b54ff3dbaea45dae6",
          "topics": [
            "0x5fb975982001b5628fa52c30e678eb569736c74c4d0835616e5580f71d3320ce",
            "0x0000000000000000000000001b1414782b859871781ba3e4b0979b9ca57a0a04"
          ],
          "data": "0x0000000000000000000000000000000000000000000000000000000000000001",
          "blockHash": "0x1ed20ccc5721523f5643391defa62f3820529d46c97a9f31358f0f2877bbd4fc",
          "blockNumber": "0xce1d58",
          "blockTimestamp": "0x69950963",
          "transactionHash": "0xf150ff489b1a934e9ec198023ff8375fd547d247120c22e2cc98ef272f5f425f",
          "transactionIndex": "0x2",
          "logIndex": "0x5",
          "removed": false
        }
      ],
      "logsBloom": "0x00000000000000000000000000000000000000000000020000000000000000000000000000000000000000000000000000000000000000000000000000000002000000000000000000000000000000000000000000000000000000000000000000000000000000000000000000000000000000000000000000000000000000000000000000000000000000000000000000000000000000000080000800000000000000000000000000000000040000100000000000000000000000000000000000000000000000000000000000000000100400000000000000000000000000000000000000000000000000000000000000000004000000000000000000000000",
      "type": "0x2",
      "transactionHash": "0xf150ff489b1a934e9ec198023ff8375fd547d247120c22e2cc98ef272f5f425f",
      "transactionIndex": "0x2",
      "blockHash": "0x1ed20ccc5721523f5643391defa62f3820529d46c97a9f31358f0f2877bbd4fc",
      "blockNumber": "0xce1d58",
      "gasUsed": "0x136de",
      "effectiveGasPrice": "0x17bfac7c00",
      "from": "0x1433df88aa130363b523f3f452c05854c0a02084",
      "to": "0xdbf6fb7d82b6c178a73a795b54ff3dbaea45dae6",
      "contractAddress": null
    },
    {
      "status": "0x1",
      "cumulativeGasUsed": "0x4a775",
      "logs": [
        {
          "address": "0xdbf6fb7d82b6c178a73a795b54ff3dbaea45dae6",
          "topics": [
            "0x5fb975982001b5628fa52c30e678eb569736c74c4d0835616e5580f71d3320ce",
            "0x000000000000000000000000c1d4c3331635184fa4c3c22fb92211b2ac9e0546"
          ],
          "data": "0x0000000000000000000000000000000000000000000000000000000000000001",
          "blockHash": "0xac65d11403c874d038c0b9aaaf9e4b7c401fed15ebeb01e22d9f605c054c32bf",
          "blockNumber": "0xce1d5e",
          "blockTimestamp": "0x69950966",
          "transactionHash": "0x1d65adf934ccef4a9e44b72f63ca0e8e5544526cc95998e7053c61b8a4e36754",
          "transactionIndex": "0x2",
          "logIndex": "0x5",
          "removed": false
        }
      ],
      "logsBloom": "0x00000000000000000000000000000000000000000000020000000000000000001000000000000000000000000000000000000000000000000000000000000002000000000000000000000004000000000000000000000000000000000000000000000000000000000000000000000000000000000000000000000000000000000000000000000000000000000000000000000000000000000080000800000000000000000000000000000000040000000000000000000000000000000000000000000000000000000000000000000000000000000000000000000000000000000000000000000000000000000000000000000004000000000000001000000000",
      "type": "0x2",
      "transactionHash": "0x1d65adf934ccef4a9e44b72f63ca0e8e5544526cc95998e7053c61b8a4e36754",
      "transactionIndex": "0x2",
      "blockHash": "0xac65d11403c874d038c0b9aaaf9e4b7c401fed15ebeb01e22d9f605c054c32bf",
      "blockNumber": "0xce1d5e",
      "gasUsed": "0x136de",
      "effectiveGasPrice": "0x17bfac7c00",
      "from": "0x1433df88aa130363b523f3f452c05854c0a02084",
      "to": "0xdbf6fb7d82b6c178a73a795b54ff3dbaea45dae6",
      "contractAddress": null
    },
    {
      "status": "0x1",
      "cumulativeGasUsed": "0xbf809",
      "logs": [
        {
          "address": "0xdbf6fb7d82b6c178a73a795b54ff3dbaea45dae6",
          "topics": [
            "0x5fb975982001b5628fa52c30e678eb569736c74c4d0835616e5580f71d3320ce",
            "0x00000000000000000000000016f8008c3e89f62e5e2b909ce70999370d38f4f2"
          ],
          "data": "0x0000000000000000000000000000000000000000000000000000000000000001",
          "blockHash": "0x52dd1926c928641d863d665fda50a817d1cdf69eceef379a30731cfc24c10c9a",
          "blockNumber": "0xce1d62",
          "blockTimestamp": "0x69950967",
          "transactionHash": "0x72b01d0d7f4057fef1954834d82ee6c33a8b281bc9b3c2b18d512fd1fa894e83",
          "transactionIndex": "0x4",
          "logIndex": "0x9",
          "removed": false
        }
      ],
      "logsBloom": "0x00000000000000000000000000000000000000000000020000000000000000000000000000000000000000000000100000000000000000000000000000000002000000000000000100000000000000000000000000000000000000000000000000000000000000000000000000000000000000000000000000000000000000000000000000000000000000000000000000000000000000000080000800000000000000000000000000000000040000000100000000000000000000000000000000000000000000000000000000000000000000000000000000000000000000000000000000000000000000000000000000000004000000000000000000000000",
      "type": "0x2",
      "transactionHash": "0x72b01d0d7f4057fef1954834d82ee6c33a8b281bc9b3c2b18d512fd1fa894e83",
      "transactionIndex": "0x4",
      "blockHash": "0x52dd1926c928641d863d665fda50a817d1cdf69eceef379a30731cfc24c10c9a",
      "blockNumber": "0xce1d62",
      "gasUsed": "0x136cd",
      "effectiveGasPrice": "0x17bfac7c00",
      "from": "0x1433df88aa130363b523f3f452c05854c0a02084",
      "to": "0xdbf6fb7d82b6c178a73a795b54ff3dbaea45dae6",
      "contractAddress": null
    },
    {
      "status": "0x1",
      "cumulativeGasUsed": "0x7b3aa",
      "logs": [
        {
          "address": "0xdbf6fb7d82b6c178a73a795b54ff3dbaea45dae6",
          "topics": [
            "0x5fb975982001b5628fa52c30e678eb569736c74c4d0835616e5580f71d3320ce",
            "0x0000000000000000000000005c266b5c655664d6c99a13ff0d7f1f7eaf4ac9ba"
          ],
          "data": "0x0000000000000000000000000000000000000000000000000000000000000001",
          "blockHash": "0xee46553100f1dfaa7aaf00aad3f8d667d07d1833ed77853860ff95e231604f97",
          "blockNumber": "0xce1d67",
          "blockTimestamp": "0x69950969",
          "transactionHash": "0x8eddffc3da4358876056818dfa1d1d78e4c67266f0509c2de1172959fc4540c9",
          "transactionIndex": "0x4",
          "logIndex": "0x7",
          "removed": false
        }
      ],
      "logsBloom": "0x00000000000000000000000000000000000000000000020000000000000000000000000000000000000000000000000000000000000000000000000000000002000000000000000000000000000000000000000000000000000000000000000000010000000000000000000000000000000000004000000000000000000000000080000000000000000000000000000000000000000000000080000800000000000000000000000000000000040000000000000000000000000000000000000000000000000000000000000000000000000000000000000000000000000000000000000000000000000000000000000000000004000000000000000000000000",
      "type": "0x2",
      "transactionHash": "0x8eddffc3da4358876056818dfa1d1d78e4c67266f0509c2de1172959fc4540c9",
      "transactionIndex": "0x4",
      "blockHash": "0xee46553100f1dfaa7aaf00aad3f8d667d07d1833ed77853860ff95e231604f97",
      "blockNumber": "0xce1d67",
      "gasUsed": "0x136de",
      "effectiveGasPrice": "0x17bfac7c00",
      "from": "0x1433df88aa130363b523f3f452c05854c0a02084",
      "to": "0xdbf6fb7d82b6c178a73a795b54ff3dbaea45dae6",
      "contractAddress": null
    },
    {
      "status": "0x1",
      "cumulativeGasUsed": "0x4a733",
      "logs": [
        {
          "address": "0xdbf6fb7d82b6c178a73a795b54ff3dbaea45dae6",
          "topics": [
            "0x5fb975982001b5628fa52c30e678eb569736c74c4d0835616e5580f71d3320ce",
            "0x000000000000000000000000b0c0202e6d8b978f9b6fe6b5e50ebd6fd7a962a1"
          ],
          "data": "0x0000000000000000000000000000000000000000000000000000000000000001",
          "blockHash": "0x58dd590d50ee4fc935d740a698a8734442b231839f7b9ae5645a56494c147f70",
          "blockNumber": "0xce1d6c",
          "blockTimestamp": "0x6995096b",
          "transactionHash": "0x97af79018fcf5d39438ac0e6dc617c0050536178faf84192b57a7ff9c71da7e6",
          "transactionIndex": "0x2",
          "logIndex": "0x5",
          "removed": false
        }
      ],
      "logsBloom": "0x00000000000000000000000000000000000000000000020000000000000000000000000000000000000000000000000000000000000000000000000000000002000000000000000000000000000000000000000000000000000000000000000000000000000000000000000000000000000000000000000000000000000000000000000000000000000000000000000000000000000000000080000800000000000000000000001000000000040000000000200000000000000000000000000000000000000000000000000000000000000000010000000000000000000000000000000000000000000000000000000000000004000000000000000000000000",
      "type": "0x2",
      "transactionHash": "0x97af79018fcf5d39438ac0e6dc617c0050536178faf84192b57a7ff9c71da7e6",
      "transactionIndex": "0x2",
      "blockHash": "0x58dd590d50ee4fc935d740a698a8734442b231839f7b9ae5645a56494c147f70",
      "blockNumber": "0xce1d6c",
      "gasUsed": "0x136de",
      "effectiveGasPrice": "0x17bfac7c00",
      "from": "0x1433df88aa130363b523f3f452c05854c0a02084",
      "to": "0xdbf6fb7d82b6c178a73a795b54ff3dbaea45dae6",
      "contractAddress": null
    },
    {
      "status": "0x1",
      "cumulativeGasUsed": "0x3cb01",
      "logs": [
        {
          "address": "0xdbf6fb7d82b6c178a73a795b54ff3dbaea45dae6",
          "topics": [
            "0x5fb975982001b5628fa52c30e678eb569736c74c4d0835616e5580f71d3320ce",
            "0x000000000000000000000000cd22c0012480987f6f81f1099e74954b75666361"
          ],
          "data": "0x0000000000000000000000000000000000000000000000000000000000000001",
          "blockHash": "0x23abd1dea3b7d8282c32da86441c1436b37836f8b8fed7d346f39495056778f4",
          "blockNumber": "0xce1d70",
          "blockTimestamp": "0x6995096d",
          "transactionHash": "0x0084d15a6c25ce4e04618931e43bbdd14118d69eab3692646f5a99f3d0200d60",
          "transactionIndex": "0x2",
          "logIndex": "0x5",
          "removed": false
        }
      ],
      "logsBloom": "0x00000000000000000000000000000000000000000000020000000000000000000000000000000000000000000000000000000000000000000000000000000002000000000000000000000000000000000000000000000000000000000000000000000000000000000000000000000000000000000000000000000000000000000000000000000000000000000000000000000000000000000080000800000000000000000000000000000000040000000000000000000000000000000000000000002000000000400000000000000000000000000000000000000000008000000000000000000000000000000000000000000004000000000000000000000000",
      "type": "0x2",
      "transactionHash": "0x0084d15a6c25ce4e04618931e43bbdd14118d69eab3692646f5a99f3d0200d60",
      "transactionIndex": "0x2",
      "blockHash": "0x23abd1dea3b7d8282c32da86441c1436b37836f8b8fed7d346f39495056778f4",
      "blockNumber": "0xce1d70",
      "gasUsed": "0x136de",
      "effectiveGasPrice": "0x17bfac7c00",
      "from": "0x1433df88aa130363b523f3f452c05854c0a02084",
      "to": "0xdbf6fb7d82b6c178a73a795b54ff3dbaea45dae6",
      "contractAddress": null
    },
    {
      "status": "0x1",
      "cumulativeGasUsed": "0x82cdb",
      "logs": [
        {
          "address": "0xdbf6fb7d82b6c178a73a795b54ff3dbaea45dae6",
          "topics": [
            "0x5fb975982001b5628fa52c30e678eb569736c74c4d0835616e5580f71d3320ce",
            "0x0000000000000000000000003b59380fdcf2fd414f1675d76af5f20fb92663a7"
          ],
          "data": "0x0000000000000000000000000000000000000000000000000000000000000001",
          "blockHash": "0x78b521e4dd7605bdcba68724ef6613df50869837317c585b32eced4e00d8b61c",
          "blockNumber": "0xce1d75",
          "blockTimestamp": "0x6995096f",
          "transactionHash": "0xb127daa677aace5b34df462de564a911b97b92f8c6f0d0cea5ed72945aa1cccd",
          "transactionIndex": "0x4",
          "logIndex": "0x9",
          "removed": false
        }
      ],
      "logsBloom": "0x00000000000000000000000000000000000000000000020000000000000000000000000040000000000000000000000000000000000000000000000000000002000000000000000000000000000000000000000000000000000000000000000000000000000000000000000000000000000000000000000000000000000000000000000000000000000000000000000000004000000000000082000800000000000000000000000000000000040000000000000000000000000000000000000000000000000000000000000000000000000000000000000000000000000000000000000000000000000000000000000000000004000000000000000000000000",
      "type": "0x2",
      "transactionHash": "0xb127daa677aace5b34df462de564a911b97b92f8c6f0d0cea5ed72945aa1cccd",
      "transactionIndex": "0x4",
      "blockHash": "0x78b521e4dd7605bdcba68724ef6613df50869837317c585b32eced4e00d8b61c",
      "blockNumber": "0xce1d75",
      "gasUsed": "0x136de",
      "effectiveGasPrice": "0x17bfac7c00",
      "from": "0x1433df88aa130363b523f3f452c05854c0a02084",
      "to": "0xdbf6fb7d82b6c178a73a795b54ff3dbaea45dae6",
      "contractAddress": null
    },
    {
      "status": "0x1",
      "cumulativeGasUsed": "0x4a73b",
      "logs": [
        {
          "address": "0xdbf6fb7d82b6c178a73a795b54ff3dbaea45dae6",
          "topics": [
            "0x5fb975982001b5628fa52c30e678eb569736c74c4d0835616e5580f71d3320ce",
            "0x0000000000000000000000001c747d909102bfcdb305c54bdddbda3ef588b1d0"
          ],
          "data": "0x0000000000000000000000000000000000000000000000000000000000000001",
          "blockHash": "0x05e4feffab5d9caad11ad85fcc45acaf86915c488d5b8bde94560ae6e72f63e2",
          "blockNumber": "0xce1d79",
          "blockTimestamp": "0x69950971",
          "transactionHash": "0x493079eb6d7307ac98fbc1b3e713f367ce71f7d41f08ea3a03dbcf4a179a33ba",
          "transactionIndex": "0x2",
          "logIndex": "0x5",
          "removed": false
        }
      ],
      "logsBloom": "0x00000000000000000000000000000000000000000000020000000000000000000000000000000000000000000000000000000000000000000000000000000002000000000000000000000000000000000000000000000000000000000000800000000000088000000000000000000000000000000000000000000000000000000000000000000000000000000000000000000000000000000080000800000000000000000000000000000000040000000000000000000000000000000000000000000000000000000000000000000000000000000000000000000000000000000000000000000000000000000000000000000004000000000000000000000000",
      "type": "0x2",
      "transactionHash": "0x493079eb6d7307ac98fbc1b3e713f367ce71f7d41f08ea3a03dbcf4a179a33ba",
      "transactionIndex": "0x2",
      "blockHash": "0x05e4feffab5d9caad11ad85fcc45acaf86915c488d5b8bde94560ae6e72f63e2",
      "blockNumber": "0xce1d79",
      "gasUsed": "0x136de",
      "effectiveGasPrice": "0x17bfac7c00",
      "from": "0x1433df88aa130363b523f3f452c05854c0a02084",
      "to": "0xdbf6fb7d82b6c178a73a795b54ff3dbaea45dae6",
      "contractAddress": null
    },
    {
      "status": "0x1",
      "cumulativeGasUsed": "0x4a723",
      "logs": [
        {
          "address": "0xdbf6fb7d82b6c178a73a795b54ff3dbaea45dae6",
          "topics": [
            "0x5fb975982001b5628fa52c30e678eb569736c74c4d0835616e5580f71d3320ce",
            "0x0000000000000000000000008cc589634a0b5959fb29fc1111cff26356b11918"
          ],
          "data": "0x0000000000000000000000000000000000000000000000000000000000000001",
          "blockHash": "0x15d0a800427196995f915cad6bafc16189071e8d576a22020f96c0b7f54dab40",
          "blockNumber": "0xce1d7e",
          "blockTimestamp": "0x69950973",
          "transactionHash": "0x9c1aa64fef195d08408443fc1a5a8237d8b6be71de849ca29310e72ddd50236d",
          "transactionIndex": "0x2",
          "logIndex": "0x5",
          "removed": false
        }
      ],
      "logsBloom": "0x00000000000000000000000000000000000000000000020000000000000000000000000000000000000000000000000000000000000000000000000000000002000000000000000000000000000000000000000000000000000000000000000000010000000000000000000000000000000000000000000000000000000000000000000000000000000000000000000000000000000000000080000800000000000020000000000000000000040000000000000000000000000000000000000000000000000000000000000000000000000000000000000000000000000000000000000000000000000000000000000000000004000000000000000001000000",
      "type": "0x2",
      "transactionHash": "0x9c1aa64fef195d08408443fc1a5a8237d8b6be71de849ca29310e72ddd50236d",
      "transactionIndex": "0x2",
      "blockHash": "0x15d0a800427196995f915cad6bafc16189071e8d576a22020f96c0b7f54dab40",
      "blockNumber": "0xce1d7e",
      "gasUsed": "0x136de",
      "effectiveGasPrice": "0x17bfac7c00",
      "from": "0x1433df88aa130363b523f3f452c05854c0a02084",
      "to": "0xdbf6fb7d82b6c178a73a795b54ff3dbaea45dae6",
      "contractAddress": null
    },
    {
      "status": "0x1",
      "cumulativeGasUsed": "0x73bed",
      "logs": [
        {
          "address": "0xdbf6fb7d82b6c178a73a795b54ff3dbaea45dae6",
          "topics": [
            "0x5fb975982001b5628fa52c30e678eb569736c74c4d0835616e5580f71d3320ce",
            "0x000000000000000000000000bcd78f76005b7515837af6b50c7c52bcf73822fb"
          ],
          "data": "0x0000000000000000000000000000000000000000000000000000000000000001",
          "blockHash": "0x4a27d18171564d7e97f0e07ed5e941b5ec35938345cef09ed016b3b2de7da631",
          "blockNumber": "0xce1d83",
          "blockTimestamp": "0x69950975",
          "transactionHash": "0x43bfb12c9e4a1f3bab21c3eb70cc2b5cf564c85895c4cd90ca63173d213e6b23",
          "transactionIndex": "0x3",
          "logIndex": "0x9",
          "removed": false
        }
      ],
      "logsBloom": "0x00000000000000000000000000000000000000000000020000000000000000000000000000000000000000000000000000000000000000000000000000000002000000000000000000000000000000000000000000000000000000000000000000000000100000000400000000000000000000000000010000000000000000000000000000000000000000000000000000000000000000000080000800000000000000000000000000000000040000000000000000000000000000000000000000000000000000000000000000000000000000000000000000000000000000000000000000000000000000000000000000000004000000000000000000000000",
      "type": "0x2",
      "transactionHash": "0x43bfb12c9e4a1f3bab21c3eb70cc2b5cf564c85895c4cd90ca63173d213e6b23",
      "transactionIndex": "0x3",
      "blockHash": "0x4a27d18171564d7e97f0e07ed5e941b5ec35938345cef09ed016b3b2de7da631",
      "blockNumber": "0xce1d83",
      "gasUsed": "0x136cd",
      "effectiveGasPrice": "0x17bfac7c00",
      "from": "0x1433df88aa130363b523f3f452c05854c0a02084",
      "to": "0xdbf6fb7d82b6c178a73a795b54ff3dbaea45dae6",
      "contractAddress": null
    },
    {
      "status": "0x1",
      "cumulativeGasUsed": "0x4a78c",
      "logs": [
        {
          "address": "0xdbf6fb7d82b6c178a73a795b54ff3dbaea45dae6",
          "topics": [
            "0x5fb975982001b5628fa52c30e678eb569736c74c4d0835616e5580f71d3320ce",
            "0x0000000000000000000000002d1df1bd061aac38c22407ad69d69bcc3c62edbd"
          ],
          "data": "0x0000000000000000000000000000000000000000000000000000000000000001",
          "blockHash": "0x18ca61742a9cc254a74db465a0c422892fac4b665767955ce7402ca4b2289be3",
          "blockNumber": "0xce1d87",
          "blockTimestamp": "0x69950976",
          "transactionHash": "0x2faf87c794836aa39227cc093ac3e18598eeedeb7e9e77e1cee89d91bb029e67",
          "transactionIndex": "0x2",
          "logIndex": "0x5",
          "removed": false
        }
      ],
      "logsBloom": "0x00000000000000000000000000000000000000000000020000000000000000000000100000000000000000000000000000000000000000000000000000000002000000000000000000000000000000000000000000000000000000000000000000000000000000000000000000000000000000000000000000000000000000000000000000000000000000000000000000000000000000000080000800000000000000000000000000000000040040000000000000000000000000000000000000000000000000000000000000000000000000000000000000000000000000080000000000000000000000000000000000000004000000000000000000000000",
      "type": "0x2",
      "transactionHash": "0x2faf87c794836aa39227cc093ac3e18598eeedeb7e9e77e1cee89d91bb029e67",
      "transactionIndex": "0x2",
      "blockHash": "0x18ca61742a9cc254a74db465a0c422892fac4b665767955ce7402ca4b2289be3",
      "blockNumber": "0xce1d87",
      "gasUsed": "0x136de",
      "effectiveGasPrice": "0x17bfac7c00",
      "from": "0x1433df88aa130363b523f3f452c05854c0a02084",
      "to": "0xdbf6fb7d82b6c178a73a795b54ff3dbaea45dae6",
      "contractAddress": null
    },
    {
      "status": "0x1",
      "cumulativeGasUsed": "0x4a76c",
      "logs": [
        {
          "address": "0xdbf6fb7d82b6c178a73a795b54ff3dbaea45dae6",
          "topics": [
            "0x5fb975982001b5628fa52c30e678eb569736c74c4d0835616e5580f71d3320ce",
            "0x000000000000000000000000f5f15f188abcb0d165d1edb7f37f7d6fa2fcebec"
          ],
          "data": "0x0000000000000000000000000000000000000000000000000000000000000001",
          "blockHash": "0x39bebab1fc875bf820285b8a045fa53693b4843f892dfd76690f2275fd92fa93",
          "blockNumber": "0xce1d8c",
          "blockTimestamp": "0x69950978",
          "transactionHash": "0x0887aabc36fac416939a1c2f6a58066036290b25c196f660d8585e7f75ef4c0d",
          "transactionIndex": "0x2",
          "logIndex": "0x5",
          "removed": false
        }
      ],
      "logsBloom": "0x00000000000000000000000004000000000000000000020000000000000000000000000000000000000000000000000000000000000000000000000000000002000000000000000000000000000000000000000000000000000000000000000000000000000000000000000000000000000000000000000000000000000000000000000000000000000000000000000000000000000000000080000800000000000000000000000000000000040000000000000000000000000000000800000000000000000000000000000000000000000000004000000000000000000000000000000000000000000000000000000000000004000000000000000000000000",
      "type": "0x2",
      "transactionHash": "0x0887aabc36fac416939a1c2f6a58066036290b25c196f660d8585e7f75ef4c0d",
      "transactionIndex": "0x2",
      "blockHash": "0x39bebab1fc875bf820285b8a045fa53693b4843f892dfd76690f2275fd92fa93",
      "blockNumber": "0xce1d8c",
      "gasUsed": "0x136de",
      "effectiveGasPrice": "0x17bfac7c00",
      "from": "0x1433df88aa130363b523f3f452c05854c0a02084",
      "to": "0xdbf6fb7d82b6c178a73a795b54ff3dbaea45dae6",
      "contractAddress": null
    },
    {
      "status": "0x1",
      "cumulativeGasUsed": "0x11d2c7",
      "logs": [
        {
          "address": "0xdbf6fb7d82b6c178a73a795b54ff3dbaea45dae6",
          "topics": [
            "0x5fb975982001b5628fa52c30e678eb569736c74c4d0835616e5580f71d3320ce",
            "0x0000000000000000000000001a1be4c184923a6bff8c27cfdf6ac8bde4de00fc"
          ],
          "data": "0x0000000000000000000000000000000000000000000000000000000000000001",
          "blockHash": "0x07c1b0a3d23b58e3ad6641e714dbd238a164ad48b1ea1574be1af743526a229a",
          "blockNumber": "0xce1d91",
          "blockTimestamp": "0x6995097a",
          "transactionHash": "0x8dd2026f8d6ebcfe8039d6cfdc83a41f8066d9d20d8d0f3b6194501bb21c79cf",
          "transactionIndex": "0x3",
          "logIndex": "0x5",
          "removed": false
        }
      ],
      "logsBloom": "0x00000000000000000000000000000000000000000000020000000000000000000000000000000000000000000000000000000000000000000000000000000002000000000002000000000000000000000000000000000000000000000000000000000000000000000000000000000000000000000000000000000000000000000000000000000000000000000000000000000000000000000080000800000000000000000000080000000000040000000000000000000000000000000000000000000000000000000000000008000000000000000000000000000000000000000000000000000000000000000000000000000004000000000000000000000000",
      "type": "0x2",
      "transactionHash": "0x8dd2026f8d6ebcfe8039d6cfdc83a41f8066d9d20d8d0f3b6194501bb21c79cf",
      "transactionIndex": "0x3",
      "blockHash": "0x07c1b0a3d23b58e3ad6641e714dbd238a164ad48b1ea1574be1af743526a229a",
      "blockNumber": "0xce1d91",
      "gasUsed": "0x136cd",
      "effectiveGasPrice": "0x17bfac7c00",
      "from": "0x1433df88aa130363b523f3f452c05854c0a02084",
      "to": "0xdbf6fb7d82b6c178a73a795b54ff3dbaea45dae6",
      "contractAddress": null
    }
  ],
  "libraries": [],
  "pending": [],
  "returns": {
    "guide": {
      "internal_type": "contract GammaGuide",
      "value": "0xDBF6FB7d82B6C178A73a795b54Ff3dBAea45DAe6"
    }
  },
  "timestamp": 1771374972022,
  "chain": 10143,
  "commit": "b3015ad"
}